{
  "_format": "hh-sol-artifact-1",
  "contractName": "Voting",
  "sourceName": "contracts/Voting.sol",
  "abi": [
    {
      "inputs": [],
      "stateMutability": "nonpayable",
      "type": "constructor"
    },
    {
      "inputs": [],
      "name": "admin",
      "outputs": [
        {
          "internalType": "address",
          "name": "",
          "type": "address"
        }
      ],
      "stateMutability": "view",
      "type": "function"
    },
    {
      "inputs": [
        {
          "internalType": "uint256",
          "name": "",
          "type": "uint256"
        }
      ],
      "name": "candidates",
      "outputs": [
        {
          "internalType": "uint256",
          "name": "id",
          "type": "uint256"
        },
        {
          "internalType": "string",
          "name": "name",
          "type": "string"
        },
        {
          "internalType": "string",
          "name": "manifestoCID",
          "type": "string"
        },
        {
          "internalType": "uint256",
          "name": "voteCount",
          "type": "uint256"
        }
      ],
      "stateMutability": "view",
      "type": "function"
    },
    {
      "inputs": [],
      "name": "candidatesCount",
      "outputs": [
        {
          "internalType": "uint256",
          "name": "",
          "type": "uint256"
        }
      ],
      "stateMutability": "view",
      "type": "function"
    },
    {
      "inputs": [],
      "name": "electionEnded",
      "outputs": [
        {
          "internalType": "bool",
          "name": "",
          "type": "bool"
        }
      ],
      "stateMutability": "view",
      "type": "function"
    },
    {
      "inputs": [],
      "name": "endElection",
      "outputs": [],
      "stateMutability": "nonpayable",
      "type": "function"
    },
    {
      "inputs": [
        {
          "internalType": "uint256",
          "name": "_id",
          "type": "uint256"
        }
      ],
      "name": "getCandidate",
      "outputs": [
        {
          "components": [
            {
              "internalType": "uint256",
              "name": "id",
              "type": "uint256"
            },
            {
              "internalType": "string",
              "name": "name",
              "type": "string"
            },
            {
              "internalType": "string",
              "name": "manifestoCID",
              "type": "string"
            },
            {
              "internalType": "uint256",
              "name": "voteCount",
              "type": "uint256"
            }
          ],
          "internalType": "struct Voting.Candidate",
          "name": "",
          "type": "tuple"
        }
      ],
      "stateMutability": "view",
      "type": "function"
    },
    {
      "inputs": [
        {
          "internalType": "string",
          "name": "_name",
          "type": "string"
        },
        {
          "internalType": "string",
          "name": "_cid",
          "type": "string"
        }
      ],
      "name": "registerCandidate",
      "outputs": [],
      "stateMutability": "nonpayable",
      "type": "function"
    },
    {
      "inputs": [
        {
          "internalType": "address",
          "name": "_voter",
          "type": "address"
        }
      ],
      "name": "registerVoter",
      "outputs": [],
      "stateMutability": "nonpayable",
      "type": "function"
    },
    {
      "inputs": [
        {
          "internalType": "uint256",
          "name": "_candidateId",
          "type": "uint256"
        }
      ],
      "name": "vote",
      "outputs": [],
      "stateMutability": "nonpayable",
      "type": "function"
    },
    {
      "inputs": [
        {
          "internalType": "address",
          "name": "",
          "type": "address"
        }
      ],
      "name": "voters",
      "outputs": [
        {
          "internalType": "bool",
          "name": "hasVoted",
          "type": "bool"
        },
        {
          "internalType": "bool",
          "name": "isRegistered",
          "type": "bool"
        }
      ],
      "stateMutability": "view",
      "type": "function"
    }
  ],
  "bytecode": "0x6080604052348015600f57600080fd5b50336000806101000a81548173ffffffffffffffffffffffffffffffffffffffff021916908373ffffffffffffffffffffffffffffffffffffffff1602179055506115518061005f6000396000f3fe608060405234801561001057600080fd5b506004361061009e5760003560e01c806338db6dd31161006657806338db6dd31461015c57806359f7846814610178578063a3ec138d14610182578063c94ca9e3146101b3578063f851a440146101d15761009e565b80630121b93f146100a35780630dbce4dd146100bf5780632d35a8a2146100db5780633477ee2e146100f957806335b8e8201461012c575b600080fd5b6100bd60048036038101906100b89190610aca565b6101ef565b005b6100d960048036038101906100d49190610c3d565b610439565b005b6100e361055f565b6040516100f09190610cc4565b60405180910390f35b610113600480360381019061010e9190610aca565b610565565b6040516101239493929190610d5e565b60405180910390f35b61014660048036038101906101419190610aca565b6106a5565b6040516101539190610e74565b60405180910390f35b61017660048036038101906101719190610ef4565b61080a565b005b610180610938565b005b61019c60048036038101906101979190610ef4565b6109e3565b6040516101aa929190610f3c565b60405180910390f35b6101bb610a21565b6040516101c89190610f65565b60405180910390f35b6101d9610a34565b6040516101e69190610f8f565b60405180910390f35b600460009054906101000a900460ff161561023f576040517f08c379a000000000000000000000000000000000000000000000000000000000815260040161023690610ff6565b60405180910390fd5b600260003373ffffffffffffffffffffffffffffffffffffffff1673ffffffffffffffffffffffffffffffffffffffff16815260200190815260200160002060000160019054906101000a900460ff166102ce576040517f08c379a00000000000000000000000000000000000000000000000000000000081526004016102c590611062565b60405180910390fd5b600260003373ffffffffffffffffffffffffffffffffffffffff1673ffffffffffffffffffffffffffffffffffffffff16815260200190815260200160002060000160009054906101000a900460ff161561035e576040517f08c379a0000000000000000000000000000000000000000000000000000000008152600401610355906110ce565b60405180910390fd5b60008111801561037057506003548111155b6103af576040517f08c379a00000000000000000000000000000000000000000000000000000000081526004016103a69061113a565b60405180910390fd5b6001600260003373ffffffffffffffffffffffffffffffffffffffff1673ffffffffffffffffffffffffffffffffffffffff16815260200190815260200160002060000160006101000a81548160ff02191690831515021790555060016000828152602001908152602001600020600301600081548092919061043190611189565b919050555050565b60008054906101000a900473ffffffffffffffffffffffffffffffffffffffff1673ffffffffffffffffffffffffffffffffffffffff163373ffffffffffffffffffffffffffffffffffffffff16146104c7576040517f08c379a00000000000000000000000000000000000000000000000000000000081526004016104be9061121d565b60405180910390fd5b600360008154809291906104da90611189565b91905055506040518060800160405280600354815260200183815260200182815260200160008152506001600060035481526020019081526020016000206000820151816000015560208201518160010190816105379190611449565b50604082015181600201908161054d9190611449565b50606082015181600301559050505050565b60035481565b600160205280600052604060002060009150905080600001549080600101805461058e9061126c565b80601f01602080910402602001604051908101604052809291908181526020018280546105ba9061126c565b80156106075780601f106105dc57610100808354040283529160200191610607565b820191906000526020600020905b8154815290600101906020018083116105ea57829003601f168201915b50505050509080600201805461061c9061126c565b80601f01602080910402602001604051908101604052809291908181526020018280546106489061126c565b80156106955780601f1061066a57610100808354040283529160200191610695565b820191906000526020600020905b81548152906001019060200180831161067857829003601f168201915b5050505050908060030154905084565b6106ad610a58565b60016000838152602001908152602001600020604051806080016040529081600082015481526020016001820180546106e59061126c565b80601f01602080910402602001604051908101604052809291908181526020018280546107119061126c565b801561075e5780601f106107335761010080835404028352916020019161075e565b820191906000526020600020905b81548152906001019060200180831161074157829003601f168201915b505050505081526020016002820180546107779061126c565b80601f01602080910402602001604051908101604052809291908181526020018280546107a39061126c565b80156107f05780601f106107c5576101008083540402835291602001916107f0565b820191906000526020600020905b8154815290600101906020018083116107d357829003601f168201915b505050505081526020016003820154815250509050919050565b60008054906101000a900473ffffffffffffffffffffffffffffffffffffffff1673ffffffffffffffffffffffffffffffffffffffff163373ffffffffffffffffffffffffffffffffffffffff1614610898576040517f08c379a000000000000000000000000000000000000000000000000000000000815260040161088f9061121d565b60405180910390fd5b604051806040016040528060001515815260200160011515815250600260008373ffffffffffffffffffffffffffffffffffffffff1673ffffffffffffffffffffffffffffffffffffffff16815260200190815260200160002060008201518160000160006101000a81548160ff02191690831515021790555060208201518160000160016101000a81548160ff02191690831515021790555090505050565b60008054906101000a900473ffffffffffffffffffffffffffffffffffffffff1673ffffffffffffffffffffffffffffffffffffffff163373ffffffffffffffffffffffffffffffffffffffff16146109c6576040517f08c379a00000000000000000000000000000000000000000000000000000000081526004016109bd9061121d565b60405180910390fd5b6001600460006101000a81548160ff021916908315150217905550565b60026020528060005260406000206000915090508060000160009054906101000a900460ff16908060000160019054906101000a900460ff16905082565b600460009054906101000a900460ff1681565b60008054906101000a900473ffffffffffffffffffffffffffffffffffffffff1681565b6040518060800160405280600081526020016060815260200160608152602001600081525090565b6000604051905090565b600080fd5b600080fd5b6000819050919050565b610aa781610a94565b8114610ab257600080fd5b50565b600081359050610ac481610a9e565b92915050565b600060208284031215610ae057610adf610a8a565b5b6000610aee84828501610ab5565b91505092915050565b600080fd5b600080fd5b6000601f19601f8301169050919050565b7f4e487b7100000000000000000000000000000000000000000000000000000000600052604160045260246000fd5b610b4a82610b01565b810181811067ffffffffffffffff82111715610b6957610b68610b12565b5b80604052505050565b6000610b7c610a80565b9050610b888282610b41565b919050565b600067ffffffffffffffff821115610ba857610ba7610b12565b5b610bb182610b01565b9050602081019050919050565b82818337600083830152505050565b6000610be0610bdb84610b8d565b610b72565b905082815260208101848484011115610bfc57610bfb610afc565b5b610c07848285610bbe565b509392505050565b600082601f830112610c2457610c23610af7565b5b8135610c34848260208601610bcd565b91505092915050565b60008060408385031215610c5457610c53610a8a565b5b600083013567ffffffffffffffff811115610c7257610c71610a8f565b5b610c7e85828601610c0f565b925050602083013567ffffffffffffffff811115610c9f57610c9e610a8f565b5b610cab85828601610c0f565b9150509250929050565b610cbe81610a94565b82525050565b6000602082019050610cd96000830184610cb5565b92915050565b600081519050919050565b600082825260208201905092915050565b60005b83811015610d19578082015181840152602081019050610cfe565b60008484015250505050565b6000610d3082610cdf565b610d3a8185610cea565b9350610d4a818560208601610cfb565b610d5381610b01565b840191505092915050565b6000608082019050610d736000830187610cb5565b8181036020830152610d858186610d25565b90508181036040830152610d998185610d25565b9050610da86060830184610cb5565b95945050505050565b610dba81610a94565b82525050565b600082825260208201905092915050565b6000610ddc82610cdf565b610de68185610dc0565b9350610df6818560208601610cfb565b610dff81610b01565b840191505092915050565b6000608083016000830151610e226000860182610db1565b5060208301518482036020860152610e3a8282610dd1565b91505060408301518482036040860152610e548282610dd1565b9150506060830151610e696060860182610db1565b508091505092915050565b60006020820190508181036000830152610e8e8184610e0a565b905092915050565b600073ffffffffffffffffffffffffffffffffffffffff82169050919050565b6000610ec182610e96565b9050919050565b610ed181610eb6565b8114610edc57600080fd5b50565b600081359050610eee81610ec8565b92915050565b600060208284031215610f0a57610f09610a8a565b5b6000610f1884828501610edf565b91505092915050565b60008115159050919050565b610f3681610f21565b82525050565b6000604082019050610f516000830185610f2d565b610f5e6020830184610f2d565b9392505050565b6000602082019050610f7a6000830184610f2d565b92915050565b610f8981610eb6565b82525050565b6000602082019050610fa46000830184610f80565b92915050565b7f456c656374696f6e20656e646564000000000000000000000000000000000000600082015250565b6000610fe0600e83610cea565b9150610feb82610faa565b602082019050919050565b6000602082019050818103600083015261100f81610fd3565b9050919050565b7f4e6f742072656769737465726564000000000000000000000000000000000000600082015250565b600061104c600e83610cea565b915061105782611016565b602082019050919050565b6000602082019050818103600083015261107b8161103f565b9050919050565b7f416c726561647920766f74656400000000000000000000000000000000000000600082015250565b60006110b8600d83610cea565b91506110c382611082565b602082019050919050565b600060208201905081810360008301526110e7816110ab565b9050919050565b7f496e76616c69642063616e646964617465000000000000000000000000000000600082015250565b6000611124601183610cea565b915061112f826110ee565b602082019050919050565b6000602082019050818103600083015261115381611117565b9050919050565b7f4e487b7100000000000000000000000000000000000000000000000000000000600052601160045260246000fd5b600061119482610a94565b91507fffffffffffffffffffffffffffffffffffffffffffffffffffffffffffffffff82036111c6576111c561115a565b5b600182019050919050565b7f4f6e6c792061646d696e00000000000000000000000000000000000000000000600082015250565b6000611207600a83610cea565b9150611212826111d1565b602082019050919050565b60006020820190508181036000830152611236816111fa565b9050919050565b7f4e487b7100000000000000000000000000000000000000000000000000000000600052602260045260246000fd5b6000600282049050600182168061128457607f821691505b6020821081036112975761129661123d565b5b50919050565b60008190508160005260206000209050919050565b60006020601f8301049050919050565b600082821b905092915050565b6000600883026112ff7fffffffffffffffffffffffffffffffffffffffffffffffffffffffffffffffff826112c2565b61130986836112c2565b95508019841693508086168417925050509392505050565b6000819050919050565b600061134661134161133c84610a94565b611321565b610a94565b9050919050565b6000819050919050565b6113608361132b565b61137461136c8261134d565b8484546112cf565b825550505050565b600090565b61138961137c565b611394818484611357565b505050565b5b818110156113b8576113ad600082611381565b60018101905061139a565b5050565b601f8211156113fd576113ce8161129d565b6113d7846112b2565b810160208510156113e6578190505b6113fa6113f2856112b2565b830182611399565b50505b505050565b600082821c905092915050565b600061142060001984600802611402565b1980831691505092915050565b6000611439838361140f565b9150826002028217905092915050565b61145282610cdf565b67ffffffffffffffff81111561146b5761146a610b12565b5b611475825461126c565b6114808282856113bc565b600060209050601f8311600181146114b357600084156114a1578287015190505b6114ab858261142d565b865550611513565b601f1984166114c18661129d565b60005b828110156114e9578489015182556001820191506020850194506020810190506114c4565b868310156115065784890151611502601f89168261140f565b8355505b6001600288020188555050505b50505050505056fea264697066735822122044147886220b25f7e3acffb44616df9194162b176112616abbfa13d2b88e228c64736f6c634300081c0033",
  "linkReferences": {},
  "deployedLinkReferences": {}
}